:1000000014C0189518951895189518951895189561
:100010001895189518951895189518951895189578
:10002000189518951895189518958FE58DBFC8E304
:10003000E0E24E2E82E08EBFD2E0F2E05F2EA89585
:1000400084B7082E877F84BF88E1992781BD91BD41
:10005000EEEFF1E0A0E6B0E088278D933197E9F765
:100060004CD1662486E886B980E487B9379A2BD1CB
:100070008CE08BD1A09AA198B89AB99ABA9AA29812
:10008000C098C19AC29AA99AAA9AC19884E690E0A7
:10009000A8D1C29884E690E0A4D1C098C19AC29A2F
:1000A000E2ECF9E00AD1E1E0F0E01ED10CD19A9B3C
:1000B0000BC009D18FE711E015D1E2EDF9E0FDD0D9
:1000C000A8989A99F7CFFFD09A9901C001D0EFCFA5
:1000D000A89AF9D0EEEDF9E0F0D007B1007E00600B
:1000E00007B96DD2AEE8B0E08D939C9307B1007E66
:1000F000016007B964D2A0E9B0E08D939C938FEBC7
:1001000011E0F0D0A8E0B2E0EEE8F0E0F2D3CDD01C
:100110008FEB17E0E7D0A8E0B2E0E0E9F0E0E9D348
:10012000C4D0EEE8F0E0D190E0808FEFE7FE8827C2
:10013000F82E082F7BD2ABD2EAEAF9E047D3BAD245
:10014000EDE0F0E0A0E6B0E02AD4E0E6F0E04FD247
:10015000EEEAF9E03BD3E8D2EDE0F0E0A4E6B0E06F
:100160001ED4E4E6F0E03ED2E2EBF9E038D340D32F
:1001700008F018C0E6EBF9E032D3E4E6F0E032D262
:1001800099D2EDE0F0E0A8E6B0E009D4E8E6F0E0CE
:100190002ED2E4E6F0E026D2C7D2EDE0F0E0A4E60D
:1001A000B0E0FDD3E0E9F0E0D190E0808FEFE7FE32
:1001B0008827F82E082F3AD26AD2EAEBF9E006D364
:1001C00079D2EDE0F0E0ACE6B0E0E9D3ECE6F0E0C7
:1001D0000ED2EEEBF9E0FAD2A7D2EDE0F0E0A0E724
:1001E000B0E0DDD3A4E7B0E00D911C91073050E002
:1001F000150714F009F001C001C008D080E991E0B2
:10020000F0D0A4E7B0E04AD068CF089580E991E04B
:10021000E8D080E090E0A4E7B0E08D939C9353D0C9
:100220008FE711E05FD0EEEEF9E047D0A8E0B2E052
:10023000AF93BF93E4E6F0E0D5D1E2D011E002E065
:10024000BF91AF91F8D2E8E0F2E0A8E0B2E0A2D32B
:100250002CD08FEB11E046D0E4EFF9E02ED0A8E0EF
:10026000B2E0AF93BF93E0E7F0E0BCD1C9D011E0BA
:1002700002E0BF91AF91DFD2E8E0F2E0A8E0B2E0A7
:1002800089D313D0C09A80E991E0ABD0C09884EFB5
:1002900091E0A7D09A99FBCF16D009DFED91FC91A0
:1002A000EF5FFF4FFC93EE930895A8E0B2E08D91CD
:1002B000882311F064D0FBCF089584D2802D11F0F3
:1002C0005ED0FBCF089581E060D014D080E85DC09F
:1002D0008FE7213039F08FEB223021F08FE8233087
:1002E00009F08FEC810F51C088EE93E07AD03197FE
:1002F000D9F7089583E0992774C08AEF90E071D010
:10030000889A899A8A9A8B9A8C9A8D9A959885E080
:1003100090E067D0949890989198929A939A949A32
:10032000EF93FF93E4ECF0E050D0FF91EF919498BD
:1003300055D0949AEF93FF93E4ECF0E046D0FF9110
:10034000EF9194984BD0949AEF93FF93E4ECF0E004
:100350003CD0FF91EF91949841D09398949AEF9369
:10036000FF93E4ECF0E031D0FF91EF91949836D018
:1003700088E20BD08EE009D086E007D00895959AE8
:10038000829505D004D02AD008959598F9CF859507
:1003900010F4939A01C09398859510F4929A01C035
:1003A0009298859510F4919A01C09198859510F4D2
:1003B000909A01C09098949AEF93FF93E4ECF0E048
:1003C00004D0FF91EF91949808953197F1F7089533
:1003D000689462F80895E89462F8089581E090E0E6
:1003E00000C0EF93FF93EE27E82BE92B31F0E0ED0F
:1003F000F7E03197F1F70197D1F7FF91EF91089569
:100400008DE207FD8D938F2D881F802F881F8F57BA
:10041000082F6894F7F8802F87FF15C08095839583
:10042000082F80E38D938EE28D93802F815228F0E8
:1004300080E38D9399279C93089544270A95802FF4
:1004400009F192D01FC0805230F09EE49D9381E468
:100450008D939D93EFCF4427DF92EF92FF920F93FE
:100460008FE1801B11F0082F7FD085D09EE29D93F5
:100470000F91FF90EF90DF9044270395003209F42D
:10048000D7CF27D03F93E8E0F5E038E12F2D1E2DA0
:100490000D2DFF24EE24DD244427000F111F221F01
:1004A00088F42F923F928ED1102C8CD1202C8AD19F
:1004B000302C88D13197410DD21CE31CF01C3F90A9
:1004C0002F9001C0339631963A9539F73F9107D076
:1004D000B3CFDD0CEE1CFF1C0A95D9F70895002759
:1004E00019E058D08F93802B11F0039501C08F91A4
:1004F0001A95B9F7802F882309F49ACF8F91805DE0
:100500008D930A95D9F796CF0065CD1D80B2E60E82
:1005100040597307A0ACB90350D6DC01286BEE003C
:1005200094357700CA9A3B0065CD1D00B2E60E00F7
:1005300059730700ACB90300D6DC01006BEE000074
:10054000357700009A3B0000CD1D0000E60E00004C
:1005500073070000B9030000DC010000EE0000009A
:10056000770000003B000000F694E794D79447958D
:100570000A95D1F7089500270DD08F9303958F2DFD
:100580008E298D29842BC1F78F91805D8D930A95DB
:10059000D9F750CF1F930F93002710E2440FDD1CB3
:1005A000EE1CFF1C001F802F9AE0890B10F0082F13
:1005B00043951A9599F7802F0F911F910895369AB8
:1005C0003699FECF369A3699FECF84B195B108950B
:1005D000D094E094F09491E0D90E9927E91EF91E89
:1005E00010950895D190E190F19001910895219195
:1005F0003191419151910895102F90E8FF0C001F07
:100600000927990FF7941078652F90E8440F551F2C
:100610005927990F4795607800380895FF0C90E8A6
:100620009027110F9795F794092F0895102FBD2C3F
:10063000DE2CEF2CF02E11234AF4B094D094E094E9
:10064000F0949FEFB91AD90AE90AF90A0EE1FF20DE
:1006500039F4FE2CED2CDB2CBB240850C2F724C04F
:1006600032F00A95BB0CDD1CEE1CFF1CF9CF01D04B
:10067000D5CFB7FE089590E8B91611F4D0FE0895CD
:100680009FEFD91AE90AF90A09F403950895502F42
:100690002D2D3E2D4F2D612F08959FE7092FF92A0B
:1006A0009FEFD92EE92E0895DD24EE24FF240027A4
:1006B00011270895A1DFC1F35038B1F31627005870
:1006C00050580894051F12F418F4E7CF08F0ECCF47
:1006D0000BD0FF202AF0BB0CDD1CEE1CFF1C9ECFB4
:1006E0000F5F0BF4DACF9ACF9F929924AA24BB24F0
:1006F000992788E1990CAA1CBB1CDD1CEE1CFF1C71
:1007000030F4920EA31EB41ED91EE91EF91E8A955E
:1007100089F79F9008950AF045D080CF5FE32227A4
:100720003327442701C063DF67DF5038B1F3003857
:1007300099F3902F951B8BF312F434D0FACF9831A4
:1007400018F0222733274427983028F0232F342FFE
:1007500044279850F9CF992329F046953795279546
:100760009A95D9F7912F962742F014D0B0F6F794C6
:10077000E794D7940F5F8BF690CF10D051F008F428
:1007800027DFFF2052F2DD0CEE1CFF1C0150CBF7DF
:1007900084CF8ACFD20EE31EF41E0895D21AE30A44
:1007A000F40A0895DF92EF92FF920F931F93D22ED7
:1007B000E32EF42E052F162F6F915F914F913F91ED
:1007C0002F910895C895319600200895FBDFD02C15
:1007D000F9DFE02CF7DFF02CF5DF002D0895F2DFD4
:1007E000202DF0DF302DEEDF402DECDF502D089571
:1007F00007FB00680EF40F7757FB50680EF45F7725
:1008000007FD02C057FF05C0D216E306F406050730
:1008100008952D153E054F055007089599278D9190
:1008200093958823E1F7939511968C9311978E9168
:100830009A95D1F70895EA2FFB2F00244C918D91C2
:1008400003948E32E1F711248D9113948823E1F7FC
:100850001A94101640F41197202F2119239580E344
:100860008D932A95E9F7113039F59927AE2FBF2FCF
:10087000A00DB91FA00FB91F8C919C93853308F46C
:1008800021C031E08E918E32E9F38D3241F0830F39
:100890008A3319F480E331E001C033278C93AE171B
:1008A00089F7332341F0AE2FBF2FB8DF81E34D32FC
:1008B00009F43196808308958827E00DF81FE00F32
:1008C000F81F80830895000F111F221F331F089502
:1008D00000951095209530950F5F1F4F2F4F3F4F7C
:1008E0000895019110810EC00191119121913081E3
:1008F0000BC00191108117FF05C03FEF2FEF04C01F
:10090000008111272227332737FF03C0E1DF8DE263
:100910008D93CF93DF93CF92DF92EF92AA24BB24E3
:10092000CC24DD24EE2440E2CAE0DD2755E093E349
:100930008881890F87FD9F7083FD907F891B899334
:100940005A95A9F7C0DFAA1CBB1CCC1CDD1CEE1CF1
:100950004A9551F7E894EFE0FF2782910ED0EB30F3
:10096000E0F71EF068948A2D0CD088278D93EF90C5
:10097000DF90CF90DF91CF910895982F829501D08D
:10098000892F8F70805D26F0803309F40895689474
:100990008D93089581918D938823E1F7089594E0D4
:1009A00081918D939A95E1F708958FC2F53D14AE2C
:1009B00087C000000000000000403333F3BF29DC93
:1009C000EB43417373616C616D75616C61696B754B
:1009D0006D005354414E4442592E2E2E2E00436139
:1009E0006C63756C6174696E672E2E2E2E00616CBF
:0A09F0006B3D000067756C613D006F
:00000001FF
