:1000000014C0189518951895189518951895189561
:100010001895189518951895189518951895189578
:10002000189518951895189518958FE58DBFC8E304
:10003000E0E24E2E82E08EBFD2E0F2E05F2EA89585
:1000400084B7082E877F84BF88E1992781BD91BD41
:10005000EEEFF1E0A0E6B0E088278D933197E9F765
:10006000D8D1662486E886B980E487B9379AB7D1B3
:100070008CE017D2A09AA198B89AB99ABA9AC09867
:10008000C19AC29AA99AC19884E690E036D2C298E1
:1000900084E690E032D2E0E7F8E09BD1E2E0F0E0E5
:1000A000AFD19DD18FE712E0A9D1E4E8F8E091D17A
:1000B0008FEB13E0A3D1E4E9F8E08BD1E3E0F0E0CB
:1000C0009FD18DD1C098C19AC29A999B0BC087D1FC
:1000D0008FE711E093D1E0EAF8E07BD1A8989999F5
:1000E000F7CF7DD1999901C001D0ECCFA89A77D1F3
:1000F000ECEAF8E06ED107B1007E006007B90CD2DF
:10010000A6E7B0E08D939C9307B1007E016007B92C
:1001100003D2A8E7B0E08D939C938FEB11E06ED1F2
:10012000A8E0B2E0E6E7F0E03CD34BD18FEB17E07C
:1001300065D1A8E0B2E0E8E7F0E033D342D1E6E7EA
:10014000F0E0D190E0808FEFE7FE8827F82E082FAF
:100150001AD24AD2E0E5F8E0E6D259D2EDE0F0E07A
:10016000A0E6B0E06FD3E0E6F0E0EED1E4E5F8E041
:10017000DAD287D2EDE0F0E0A4E6B0E063D3E4E6C3
:10018000F0E0DDD1E8E5F8E0D7D2DFD208F018C022
:10019000ECE5F8E0D1D2E4E6F0E0D1D138D2EDE000
:1001A000F0E0A2E7B0E04ED3E2E7F0E0CDD1E4E644
:1001B000F0E0C5D166D2EDE0F0E0A4E6B0E042D3D5
:1001C000E8E7F0E0D190E0808FEFE7FE8827F82E97
:1001D000082FD9D109D2E0E6F8E0A5D218D2EDE097
:1001E000F0E0A8E6B0E02ED3E8E6F0E0ADD1E4E63A
:1001F000F8E099D246D2EDE0F0E0ACE6B0E022D3F0
:10020000A0E7B0E00D911C91073050E0150714F005
:1002100009F001C001C008D080E991E06ED1A0E7EB
:10022000B0E0C8D068CF089580E991E066D180E061
:1002300090E0A0E7B0E08D939C93D1D0ECE6F0E0A5
:100240007ED1E8E6F8E078D280D210F009F001C063
:1002500006C08FE711E0D2D0ECEBF8E0BAD0ECE6C4
:10026000F0E06DD1E8E6F8E067D26FD208F006C0A2
:100270008FE711E0C3D0E6ECF8E0ABD0E4E6F0E0C5
:100280005ED1ECE6F8E058D260D208F006C08FEB01
:1002900011E0B4D0E4EDF8E09CD0E4E6F0E04FD11A
:1002A000ECE6F8E049D251D210F009F001C006C0E6
:1002B0008FEB11E0A3D0E2EEF8E08BD0ECE6F0E0BB
:1002C0003ED1E8E6F8E038D240D280E010F009F004
:1002D00081E08F93E4E6F0E032D1ECE6F8E02CD256
:1002E00034D281E008F080E09F918923882309F4CB
:1002F00001C0C198ECE6F0E022D1E8E6F8E01CD2BB
:1003000024D281E008F080E08F93E4E6F0E017D19A
:10031000ECE6F8E011D219D280E010F009F081E0AB
:100320009F918923882309F401C0C298ECE6F0E08C
:1003300006D1E8E6F8E000D208D281E008F080E0DB
:100340008F93E4E6F0E0FBD0ECE6F8E0F5D1FDD1E8
:1003500081E008F080E09F918923882309F401C09F
:10036000C298ECE6F0E0EBD0E8E6F8E0E5D1EDD1BC
:1003700080E010F009F081E08F93E4E6F0E0DFD058
:10038000ECE6F8E0D9D1E1D180E010F009F081E0AD
:100390009F918923882309F401C0C298C09A80E9FB
:1003A00091E0ABD0C09884EF91E0A7D0999BFBCFB0
:1003B00016D088DEED91FC91EF5FFF4FFC93EE933A
:1003C0000895A8E0B2E08D91882311F064D0FBCFAE
:1003D0000895A5D1802D11F05ED0FBCF089581E066
:1003E00060D014D080E85DC08FE7213039F08FEB0A
:1003F000223021F08FE8233009F08FEC810F51C0BB
:1004000088EE93E07AD03197D9F7089583E0992761
:1004100074C08AEF90E071D0889A899A8A9A8B9AF0
:100420008C9A8D9A959885E090E067D094989098F2
:100430009198929A939A949AEF93FF93E4ECF0E058
:1004400050D0FF91EF91949855D0949AEF93FF93E9
:10045000E4ECF0E046D0FF91EF9194984BD0949A61
:10046000EF93FF93E4ECF0E03CD0FF91EF91949890
:1004700041D09398949AEF93FF93E4ECF0E031D05D
:10048000FF91EF91949836D088E20BD08EE009D09E
:1004900086E007D00895959A829505D004D02AD099
:1004A00008959598F9CF859510F4939A01C0939883
:1004B000859510F4929A01C09298859510F4919ABE
:1004C00001C09198859510F4909A01C09098949AE3
:1004D000EF93FF93E4ECF0E004D0FF91EF91949858
:1004E00008953197F1F70895689462F80895E894B3
:1004F00062F8089581E090E000C0EF93FF93EE274B
:10050000E82BE92B31F0E0EDF7E03197F1F70197B7
:10051000D1F7FF91EF910895369A3699FECF369A2A
:100520003699FECF84B195B10895D094E094F094BB
:1005300091E0D90E9927E91EF91E10950895D190E2
:10054000E190F19001910895219131914191519162
:100550000895102F90E8FF0C001F0927990FF794BA
:100560001078652F90E8440F551F5927990F47952C
:10057000607800380895FF0C90E89027110F979548
:10058000F794092F0895102FBD2CDE2CEF2CF02EA0
:1005900011234AF4B094D094E094F0949FEFB91AE8
:1005A000D90AE90AF90A0EE1FF2039F4FE2CED2CF4
:1005B000DB2CBB240850C2F724C032F00A95BB0CD8
:1005C000DD1CEE1CFF1CF9CF01D0D5CFB7FE08957E
:1005D00090E8B91611F4D0FE08959FEFD91AE90AF0
:1005E000F90A09F403950895502F2D2D3E2D4F2D16
:1005F000612F08959FE7092FF92A9FEFD92EE92E41
:100600000895DD24EE24FF24002711270895A1DF9B
:10061000C1F35038B1F31627005850580894051FFD
:1006200012F418F4E7CF08F0ECCF0BD0FF202AF03B
:10063000BB0CDD1CEE1CFF1C9ECF0F5F0BF4DACF52
:100640009ACF9F929924AA24BB24992788E1990CD8
:10065000AA1CBB1CDD1CEE1CFF1C30F4920EA31E5A
:10066000B41ED91EE91EF91E8A9589F79F90089538
:100670000AF045D080CF5FE322273327442701C00B
:1006800063DF67DF5038B1F3003899F3902F951B83
:100690008BF312F434D0FACF983118F02227332795
:1006A0004427983028F0232F342F44279850F9CF2F
:1006B000992329F04695379527959A95D9F7912F43
:1006C000962742F014D0B0F6F794E794D7940F5FD2
:1006D0008BF690CF10D051F008F427DFFF2052F2B4
:1006E000DD0CEE1CFF1C0150CBF784CF8ACFD20E5D
:1006F000E31EF41E0895D21AE30AF40A0895DF9265
:10070000EF92FF920F931F93D22EE32EF42E052F1C
:10071000162F6F915F914F913F912F910895C8953A
:10072000319600200895FBDFD02CF9DFE02CF7DFB5
:10073000F02CF5DF002D0895F2DF202DF0DF302DB5
:10074000EEDF402DECDF502D089507FB00680EF41E
:100750000F7757FB50680EF45F7707FD02C057FF15
:1007600005C0D216E306F406050708952D153E05CB
:100770004F0550070895000F111F221F331F0895C2
:1007800000951095209530950F5F1F4F2F4F3F4FCD
:100790000895019110810EC0019111912191308134
:1007A0000BC00191108117FF05C03FEF2FEF04C070
:1007B000008111272227332737FF03C0E1DF8DE2B5
:1007C0008D93CF93DF93CF92DF92EF92AA24BB2435
:1007D000CC24DD24EE2440E2CAE0DD2755E093E39B
:1007E0008881890F87FD9F7083FD907F891B899386
:1007F0005A95A9F7C0DFAA1CBB1CCC1CDD1CEE1C43
:100800004A9551F7E894EFE0FF2782910ED0EB3044
:10081000E0F71EF068948A2D0CD088278D93EF9016
:10082000DF90CF90DF91CF910895982F829501D0DE
:10083000892F8F70805D26F0803309F408956894C5
:100840008D93089594E081918D939A95E1F70895A1
:100850008FC2F53D14AE87C00000000000000040CC
:100860003333F3BF0AF7B7440080894400004040A7
:10087000496E697369616C69736173692E2E2E2EDE
:100880002E2E0000416C617420556B7572204775E7
:100890006C61000064616E20416C6B6F686F6C006E
:1008A0005354414E4442592E2E2E2E0043616C6308
:1008B000756C6174696E672E2E2E2E0047756C6103
:1008C00020416D616E0047756C61204265726C65F8
:1008D00062696800416C6B6F686F6C20416D616E7E
:1008E0000000416C6B6F686F6C2054696E676769BC
:0208F000000006
:00000001FF
