:1000000014C0189518951895189518951895189561
:100010001895189518951895189518951895189578
:10002000189518951895189518958FE58DBFC8E304
:10003000E0E24E2E82E08EBFD2E0F2E05F2EA89585
:1000400084B7082E877F84BF88E1992781BD91BD41
:10005000EEEFF1E0A0E6B0E088278D933197E9F765
:100060006ED2662486E886B980E487B9379A4DD285
:100070008CE0ADD2A09AA198B89AB99ABA9AA298EF
:10008000A99AAA9AC098C19AC29AC098C19AC29ACB
:10009000C19884E690E0C7D2C29884E690E0C3D2CB
:1000A000ECE4FCE02CD2E2E0F0E040D22ED28FE78C
:1000B00012E03AD2E0E6FCE022D28FEB13E034D239
:1000C000E0E7FCE01CD2E3E0F0E030D21ED29A9BE5
:1000D00010C01BD28FE715E027D2ECE7FCE00FD26F
:1000E000A898999901C009D0C19AC29A9A99F2CF59
:1000F0000CD29A9901C044D0EACF07D28FE712E020
:1001000013D2E4E8FCE0FBD1E2E0F0E00FD2FDD155
:1001100007B1007E006007B974D3AEE8B0E08D93FC
:100120009C9307B1007E016007B96BD3A0E9B0E0F2
:100130008D939C938FE711E0F7D1E4E9FCE0DFD1E8
:100140008FEB11E0F1D1EEE9FCE0D9D18FE71BE0B4
:10015000EBD1A8E0B2E0EEE8F0E009D5C8D18FEB32
:100160001BE0E2D1A8E0B2E0E0E9F0E000D5BFD1C9
:10017000A89A999B01C0ABDF8AEF90E054D2C8CF18
:10018000A89AC3D1EAEAFCE0BAD107B1007E0060C8
:1001900007B937D3AEE8B0E08D939C9307B1007EEA
:1001A000016007B92ED3A0E9B0E08D939C938FEB4B
:1001B00011E0BAD1EAEBFCE0A2D1EEE8F0E0D19098
:1001C000E0808FEFE7FE8827F82E082F51D381D3E8
:1001D000ECE1FCE082D4EED3EDE0F0E0A0E6B0E0AC
:1001E00017D5E0E6F0E025D3E0E2FCE076D423D4B6
:1001F000EDE0F0E0A4E6B0E00BD5E4E6F0E014D3E7
:10020000E4E2FCE073D47BD408F018C0E8E2FCE040
:100210006DD4E4E6F0E008D3CDD3EDE0F0E0A8E65D
:10022000B0E0F6D4E8E6F0E004D3E4E6F0E0FCD297
:1002300002D4EDE0F0E0A4E6B0E0EAD4E0E9F0E0DA
:10024000D190E0808FEFE7FE8827F82E082F10D39B
:1002500040D3ECE2FCE041D4ADD3EDE0F0E0ACE61D
:10026000B0E0D6D4ECE6F0E0E4D2E0E3FCE035D454
:10027000E2D3EDE0F0E0A0E7B0E0CAD4A4E7B0E05C
:100280000D911C91073050E0150714F009F001C0E2
:1002900001C008D080E991E0C6D1A4E7B0E020D148
:1002A00074CF089580E991E0BED180E090E0A4E7AA
:1002B000B0E08D939C9329D1E0E7F0E0B5D2E4E380
:1002C000FCE014D41CD410F009F001C006C08FE784
:1002D00011E02AD1E6ECFCE012D1E0E7F0E0A4D294
:1002E000E4E3FCE003D40BD408F006C08FE711E090
:1002F0001BD1E0EDFCE003D1E4E6F0E095D2E8E3C9
:10030000FCE0F4D3FCD308F006C08FEB11E00CD175
:10031000EEEDFCE0F4D0E4E6F0E086D2E8E3FCE0C9
:10032000E5D3EDD310F009F001C006C08FEB11E06A
:10033000FBD0ECEEFCE0E3D0E0E7F0E075D2E4E3E4
:10034000FCE0D4D3DCD380E010F009F081E08F939F
:10035000E4E6F0E069D2E8E3FCE0C8D3D0D381E082
:1003600008F080E09F918923882309F401C0C19897
:10037000E0E7F0E059D2E4E3FCE0B8D3C0D381E099
:1003800008F080E08F93E4E6F0E04ED2E8E3FCE092
:10039000ADD3B5D380E010F009F081E09F918923BF
:1003A000882309F401C0C298E0E7F0E03DD2E4E31D
:1003B000FCE09CD3A4D381E008F080E08F93E4E6D6
:1003C000F0E032D2E8E3FCE091D399D381E008F089
:1003D00080E09F918923882309F401C0C298E0E757
:1003E000F0E022D2E4E3FCE081D389D380E010F096
:1003F00009F081E08F93E4E6F0E016D2E8E3FCE058
:1004000075D37DD380E010F009F081E09F918923BE
:10041000882309F401C0C298C09A80E991E003D111
:10042000C0988CE291E0FFD09A99FBCF9A9BFECFC7
:100430006CD04DDE8CE291E0F6D0ECE3FCE056D3DC
:10044000E0E7F0E0F1D1E8D2EDE0F0E0A6E7B0E0DF
:10045000DFD3AAE7B0E0E0E4FCE06BD3EAE7F0E04A
:10046000E8D1E6E7F0E0E0D14FD2EDE0F0E0AEE732
:10047000B0E0CED3E4E4FCE039D3E4E6F0E0D4D15C
:10048000CBD2EDE0F0E0A2E8B0E0C2D3A6E8B0E065
:10049000E8E4FCE04ED3E6E8F0E0CBD1E2E8F0E0BF
:1004A000C3D132D2EDE0F0E0AAE8B0E0B1D32DD074
:1004B0008FE711E039D0A8E0B2E0EEE7F0E0B4D188
:1004C000C1D015D08FEB11E02FD0A8E0B2E0EAE860
:1004D000F0E0AAD1B7D00BD0E4E0F0E027D0F7CD20
:1004E000ED91FC91EF5FFF4FFC93EE930895A8E030
:1004F000B2E08D91882311F064D0FBCF0895E9D24A
:10050000802D11F05ED0FBCF089581E060D014D033
:1005100080E85DC08FE7213039F08FEB223021F089
:100520008FE8233009F08FEC810F51C088EE93E003
:100530007AD03197D9F7089583E0992774C08AEF6C
:1005400090E071D0889A899A8A9A8B9A8C9A8D9A1F
:10055000959885E090E067D0949890989198929AB9
:10056000939A949AEF93FF93E4ECF0E050D0FF91CC
:10057000EF91949855D0949AEF93FF93E4ECF0E0C8
:1005800046D0FF91EF9194984BD0949AEF93FF93BC
:10059000E4ECF0E03CD0FF91EF91949841D0939837
:1005A000949AEF93FF93E4ECF0E031D0FF91EF9158
:1005B000949836D088E20BD08EE009D086E007D040
:1005C0000895959A829505D004D02AD008959598DB
:1005D000F9CF859510F4939A01C09398859510F4FE
:1005E000929A01C09298859510F4919A01C09198C1
:1005F000859510F4909A01C09098949AEF93FF9388
:10060000E4ECF0E004D0FF91EF91949808953197D5
:10061000F1F70895689462F80895E89462F80895EF
:1006200081E090E000C0EF93FF93EE27E82BE92BE9
:1006300031F0E0EDF7E03197F1F70197D1F7FF9155
:10064000EF9108958DE207FD8D938F2D881F802FE8
:10065000881F8F57082F6894F7F8802F87FF15C0E1
:1006600080958395082F80E38D938EE28D93802F64
:10067000815228F080E38D9399279C930895442715
:100680000A95802F09F192D01FC0805230F09EE46D
:100690009D9381E48D939D93EFCF4427DF92EF925A
:1006A000FF920F938FE1801B11F0082F7FD085D030
:1006B0009EE29D930F91FF90EF90DF90442703956A
:1006C000003209F4D7CF27D03F93ECE4F7E038E1CC
:1006D0002F2D1E2D0D2DFF24EE24DD244427000F89
:1006E000111F221F88F42F923F92F3D1102CF1D1C9
:1006F000202CEFD1302CEDD13197410DD21CE31CD1
:10070000F01C3F902F9001C0339631963A9539F7FF
:100710003F9107D0B3CFDD0CEE1CFF1C0A95D9F733
:100720000895002719E058D08F93802B11F003957E
:1007300001C08F911A95B9F7802F882309F49ACFB9
:100740008F91805D8D930A95D9F796CF0065CD1D69
:1007500080B2E60E40597307A0ACB90350D6DC0155
:10076000286BEE0094357700CA9A3B0065CD1D00DA
:10077000B2E60E0059730700ACB90300D6DC0100E5
:100780006BEE0000357700009A3B0000CD1D0000A5
:10079000E60E000073070000B9030000DC01000052
:1007A000EE000000770000003B000000F694E794A4
:1007B000D79447950A95D1F7089500270DD08F93C8
:1007C00003958F2D8E298D29842BC1F78F91805D04
:1007D0008D930A95D9F750CF1F930F93002710E2FE
:1007E000440FDD1CEE1CFF1C001F802F9AE0890BBC
:1007F00010F0082F43951A9599F7802F0F911F91AC
:100800000895369A3699FECF369A3699FECF84B13E
:1008100095B10895D094E094F09491E0D90E992781
:10082000E91EF91E10950895D190E190F190019183
:10083000089521913191419151910895102F90E89F
:10084000FF0C001F0927990FF7941078652F90E887
:10085000440F551F5927990F479560780038089520
:10086000FF0C90E89027110F9795F794092F0895A2
:10087000102FBD2CDE2CEF2CF02E11234AF4B09457
:10088000D094E094F0949FEFB91AD90AE90AF90AD2
:100890000EE1FF2039F4FE2CED2CDB2CBB2408509C
:1008A000C2F766C032F00A95BB0CDD1CEE1CFF1CC3
:1008B000F9CF01D0D5CFB7FE089590E8B91611F45D
:1008C000D0FE08959FEFD91AE90AF90A09F40395B1
:1008D0000895502F2D2D3E2D4F2D612F08952DEC75
:1008E0003CEC4CEC5DE366270FC09EDFF2DFDD24BD
:1008F000EE2490E8F92E0FE307C09BDF05C0222706
:10090000332740E251E46627552351F1002381F15A
:1009100095DF71F11627005850580894050B18F40C
:1009200007FD03C025C007FD23C0469537952795D1
:10093000F694E794D79422D0FF202AF0DD0CEE1C29
:10094000FF1C015073F09D2D969548F0DD203AF480
:10095000EE202AF491E0D90E9927E91EF91E80CFE6
:1009600007C09FE7092FF92A9FEFD92EE92E089596
:10097000DD24EE24FF240027112708959F92992457
:10098000AA24BB2488E1D216E306F40628F0D21A82
:10099000E30AF40A089401C08894991CAA1CBB1CA1
:1009A000DD0CEE1CFF1C8A9571F7D92CEA2CFB2C70
:1009B0009F90089543DFE1F25038D1F21627005896
:1009C00050580894051F12F418F4CBCF08F0D0CF7C
:1009D0000BD0FF202AF0BB0CDD1CEE1CFF1C40CF0F
:1009E0000F5F0BF4BECF3CCF9F929924AA24BB2467
:1009F000992788E1990CAA1CBB1CDD1CEE1CFF1C6E
:100A000030F4920EA31EB41ED91EE91EF91E8A955B
:100A100089F79F9008950DDF11DF503829F090E895
:100A200069270CC00AF045D01BCF5FE3222733278C
:100A3000442701C0FEDE02DF5038B1F3003899F3DD
:100A4000902F951B8BF312F434D0FACF983118F015
:100A5000222733274427983028F0232F342F442788
:100A60009850F9CF992329F04695379527959A956F
:100A7000D9F7912F962742F014D0B0F6F794E79467
:100A8000D7940F5F8BF66DCF10D051F008F4C2DE13
:100A9000FF2052F2DD0CEE1CFF1C0150CBF761CFA2
:100AA00067CFD20EE31EF41E0895D21AE30AF40AA9
:100AB0000895DF92EF92FF920F931F93D22EE32EB1
:100AC000F42E052F162F6F915F914F913F912F912B
:100AD0000895C895319600200895FBDFD02CF9DFEA
:100AE000E02CF7DFF02CF5DF002D0895F2DF202D4C
:100AF000F0DF302DEEDF402DECDF502D089507FBA9
:100B000000680EF40F7757FB50680EF45F7707FD0F
:100B100002C057FF05C0D216E306F4060507089584
:100B20002D153E054F055007089591E005C092E050
:100B300003C094E001C098E0CCDF0D929A95E1F7F4
:100B40000895000F111F221F331F0895009510955F
:100B5000209530950F5F1F4F2F4F3F4F0895019104
:100B600010810EC001911191219130810BC0019132
:100B7000108117FF05C03FEF2FEF04C00081112740
:100B80002227332737FF03C0E1DF8DE28D93CF9318
:100B9000DF93CF92DF92EF92AA24BB24CC24DD24F2
:100BA000EE2440E2CAE0DD2755E093E38881890F17
:100BB00087FD9F7083FD907F891B89935A95A9F7C4
:100BC000C0DFAA1CBB1CCC1CDD1CEE1C4A9551F7D7
:100BD000E894EFE0FF2782910ED0EB30E0F71EF0B3
:100BE00068948A2D0CD088278D93EF90DF90CF905A
:100BF000DF91CF910895982F829501D0892F8F7022
:100C0000805D26F0803309F4089568948D930895EB
:100C100094E081918D939A95E1F708958FC2F53D07
:100C200014AE87C000000000000000403333F3BF63
:100C300029DCEB430080894400004040000066430B
:100C400000000C420000803F0000C03F496E697305
:100C500069616C69736173692E2E2E2E2E2E000031
:100C6000416C617420556B75722047756C61000092
:100C700064616E20416C6B6F686F6C005354414E21
:100C8000444259004D6F6465204B616C696272612A
:100C900073690000416C6B6F686F6C2020004775B2
:100CA0006C61202020202020200043616C63756C43
:100CB0006174696E672E2E2E2E00506C656173650F
:100CC00020576169740047756C6120416D616E0049
:100CD00047756C61204265726C6562696800416CA1
:100CE0006B6F686F6C20416D616E0000416C6B6FC3
:0C0CF000686F6C2054696E676769000033
:00000001FF
